:020000040800F2
:10000000280A0020C9010008C90C0008CB0C000810
:10001000CF0C0008D30C0008D70C0008000000002B
:10002000000000000000000000000000DB0C0008E1
:10003000DD0C000800000000DF0C0008E10C0008E7
:10004000E3010008E3010008E3010008E301000800
:10005000E3010008E3010008E3010008E3010008F0
:10006000E3010008E3010008E3010008E3010008E0
:10007000E3010008E3010008E3010008E3010008D0
:10008000E3010008E3010008E3010008E3010008C0
:10009000E30C0008E3010008E3010008E3010008A5
:1000A000E3010008E3010008E3010008E3010008A0
:1000B000E3010008E3010008E3010008E301000890
:1000C000E3010008E3010008E3010008E301000880
:1000D000E3010008E3010008E3010008E301000870
:1000E000E3010008E3010008EB0C000800F002F84F
:1000F00000F05AF80AA090E8000C82448344AAF168
:100100000107DA4501D100F04FF8AFF2090EBAE865
:100110000F0013F0010F18BFFB1A43F0010318473B
:10012000542E0000742E00000A444FF0000C10F80A
:10013000013B13F0070408BF10F8014B1D1108BF65
:1001400010F8015B641E05D010F8016B641E01F805
:10015000016BF9D113F0080F1EBF10F8014BAD1C55
:100160000C1B09D16D1E58BF01F801CBFAD505E073
:1001700014F8016B01F8016B6D1EF9D59142D6D3CD
:10018000704700000023002400250026103A28BFF5
:1001900078C1FBD8520728BF30C148BF0B607047F9
:1001A0001FB51FBD10B510BD02F051FE1146FFF77F
:1001B000F7FF01F080F902F06FFE03B4FFF7F2FFE2
:1001C00003BC02F077FE0000094880470948004759
:1001D000FEE7FEE7FEE7FEE7FEE7FEE7FEE7FEE7F7
:1001E000FEE7FEE704480549054A064B7047000054
:1001F000E1130008ED00000828040020280A002070
:10020000280600202806002031490143314A1160A8
:10021000704770B5002100230F22C47804B32D4C21
:10022000246804F4E064C4F5E064210AC1F1040325
:10023000CA40447804FA03F1847814402143090148
:10024000254C0678A155047804F01F050124AC4024
:1002500005786D11AD0005F1E025C5F8004109E014
:10026000047804F01F050124AC401C4D067876117B
:1002700045F8264070BD1A4A0A400243154B1B1F21
:100280001A60704739B1134A121D12680243114BAC
:100290001B1D1A6006E00F4A121D126882430D4BA7
:1002A0001B1D1A607047042808D14FF0E02109692E
:1002B00041F004014FF0E022116107E04FF0E0212E
:1002C000096921F004014FF0E0221161704700003C
:1002D0000000FA050CED00E000E400E080E100E041
:1002E00080FFFF1F002044490860091D0860091DA8
:1002F0000860091D086041483F4914310860704793
:1003000000213D498279002A3AD00A4612680368E2
:100310009A430B461A600A1D126803689A430B1D24
:100320001A60027911440A6803681A430A60324A63
:100330000832126803689A432F4B08331A601A1D5B
:10034000126803689A432C4B0C331A604279102AC6
:100350000ED11A1F126803681A43274B08331A601C
:100360001A1D126803681A43234B0C331A600DE000
:100370002149427911440A6803681A430A6005E07A
:10038000027911440A6803689A430A6070470021A1
:10039000016001710C214171002181717047164982
:1003A000103109680143144A103211607047014648
:1003B0000020114A143212680A400AB1012000E0FC
:1003C000002070470C491431086070470146002036
:1003D0000022094B1B6803EA0102074B14331B6818
:1003E0000B4013B10AB1012000E000207047024920
:1003F000143108607047000000040140FFFF0F0047
:1004000010B50446CC48844208D10121042000F0F4
:100410002DFB0021042000F029FB46E0C748844260
:1004200008D10121082000F021FB0021082000F064
:100430001DFB3AE0C248844208D10121102000F09F
:1004400015FB0021102000F011FB2EE0BD48844276
:1004500008D10121202000F009FB0021202000F01C
:1004600005FB22E0B848844208D10121402000F079
:10047000FDFA0021402000F0F9FA16E0B34884426A
:1004800008D10121802000F0F1FA0021802000F045
:10049000EDFA0AE0AE48844207D10121801500F050
:1004A000E5FA0021A01500F0E1FA10BD10B5012118
:1004B000084600F0DBFA0021012000F0D7FA10BD59
:1004C0002DE9F041024600250026002000230024EB
:1004D000002791F803C00CF00F0591F803C00CF051
:1004E000100CBCF1000F03D091F802C04CEA0505D6
:1004F00091F800C0BCF1000F31D0146800202BE04F
:100500004FF0010C0CFA00F3B1F800C00CEA03063E
:100510009E4220D183004FF00F0C0CFA03F7BC432E
:1005200005FA03FC4CEA040491F803C0BCF1280F5F
:1005300006D14FF0010C0CFA00FCC2F814C00AE01E
:1005400091F803C0BCF1480F05D14FF0010C0CFA33
:1005500000FCC2F810C0401C0828D1D31460B1F8C8
:1005600000C0BCF1FF0F34DD546800202EE000F124
:10057000080C4FF0010808FA0CF3B1F800C00CEABF
:1005800003069E4221D183004FF00F0C0CFA03F7B3
:10059000BC4305FA03FC4CEA040491F803C0BCF127
:1005A000280F05D100F1080C08FA0CF8C2F81480E5
:1005B00091F803C0BCF1480F07D100F1080C4FF0CF
:1005C000010808FA0CF8C2F81080401C0828CED3A5
:1005D0005460BDE8F0814FF6FF7101800221817007
:1005E0000421C17070470246002093680B400BB194
:1005F000012000E0002070470146886880B2704703
:1006000002460020D3680B400BB1012000E000201F
:1006100070470146C86880B2704701617047416108
:1006200070470AB1016100E041617047C1607047E5
:100630004FF480320A4382618161826182698269FA
:10064000704702460020434B18684FF680731840ED
:1006500040EA021008433F4B186070473E49C861AA
:100660007047F0B50A46002300240021002500F061
:100670000046B6F1004F02D1364EF16901E0354E29
:100680007168C0F3034583B200F44016B6F5401F0D
:1006900008D121F070612F4E766826F070662D4FDC
:1006A0007E6012E000F48016B6F5801F06D10326A6
:1006B00006FA05F4A14341F0706106E0460D3601EB
:1006C00003FA06F6B14341F0706122B1460D3601DE
:1006D00003FA06F6314300F00046B6F1004F02D1AE
:1006E0001C4EF16101E01B4E7160F0BD30B500227F
:1006F0008B071C0F0F2303FA04F2164B08338C10E0
:1007000053F824309343134C08348D1044F82530AB
:1007100023468C1053F824308C07240F00FA04F47D
:1007200023430C4C08348D1044F8253030BD0A4961
:10073000DC3108607047000000080140000C0140F7
:10074000001001400014014000180140001C01404D
:10075000002001400000014000002042DF48006806
:1007600040F00100DD49086008464068DC49084067
:10077000DA49486008460068DA490840D749086005
:100780000846006820F4802008600846406820F48D
:10079000FE0048604FF41F0088607047CF49096829
:1007A00021F48031CD4A11601146096821F480217D
:1007B0001160B0F5803F03D0B0F5802F0ED106E078
:1007C000C649096841F48031C44A116007E0C34951
:1007D000096841F4A021C14A116000E000BF00BFD8
:1007E000704710B501460022002300204A11012A5B
:1007F00002D1BA4C236806E0022A02D1B74C236A20
:1008000001E0B64C636A01F01F02012494401C40D1
:100810000CB1012000E0002010BD38B50020009090
:100820000024002500BF3120FFF7DBFF05460098BC
:10083000401C00900098B0F5A06F01D0002DF2D0C0
:100840003120FFF7CEFF08B1012400E0002420464C
:1008500038BD01460020A14A106820F0F80040EAA7
:10086000C10010607047A049086070470246002030
:100870009A4B586820F47C1042EA01031843974BC6
:100880005860704798490866704701460020934AAF
:10089000506820F003000843506070478F4840685C
:1008A00000F00C007047014600208C4A506820F090
:1008B000F00008435060704701460020874A5068A6
:1008C00020F4E06008435060704701460020834AEE
:1008D000506820F4605040EAC1005060704729B170
:1008E0007E4A527A02437D4B5A7204E07B4A527A26
:1008F00082437A4B5A7270477B49D83108607047FF
:1009000001460020754A506820F44040084350607A
:1009100070470021714A20321170704A82F820100D
:10092000012802D004280AD104E001216B4A2032B8
:10093000117005E00521694A2032117000E000BF06
:1009400000BF70476949086070476449096A0143FC
:10095000624A11627047654944390860704730B592
:1009600000210022002400235C4D6D6805F00C017D
:1009700021B1042905D0082923D105E05C4D05608B
:1009800022E05C4D05601FE0544D6D6805F4701267
:10099000524D6D6805F48034022505EB92421CB976
:1009A000554D554305600BE04C4D6D6805F4003521
:1009B0001DB1524D5543056002E04E4D5543056053
:1009C00002E04B4D056000BF00BF444D6D6805F06F
:1009D000F00109094A4D6B5C0568DD4045603F4DFB
:1009E0006D6805F4E061090A454D6B5C4568DD40C2
:1009F00085603A4D6D6805F46051C90A404D6B5CE5
:100A00004568DD40C560354D6D6805F44041890B92
:100A10003C4D6B5CC568B5FBF3F5056130BD29B194
:100A20002E4A526902432D4B5A6104E02B4A526907
:100A300082432A4B5A61704729B1284A926902437E
:100A4000264B9A6104E0254A92698243234B9A61BE
:100A5000704729B1214AD2690243204BDA6104E090
:100A60001E4AD26982431D4BDA61704729B11B4A85
:100A7000D2680243194BDA6004E0184AD268824314
:100A8000164BDA60704729B1144A12690243134BBE
:100A90001A6104E0114A12698243104B1A617047CF
:100AA00012494039086070470F49C86470470B49C4
:100AB000C87170470948406A40F080700749486231
:100AC000704701460020054A92680A400AB1012099
:100AD00000E0002070470149887270470010024012
:100AE0000000FFF8FFFFF6FE000042428004424291
:100AF00000127A0000366E0100093D00001BB700AD
:100B000000000020100000201CB50020644908806F
:100B100004E063480088401C614908806048008800
:100B2000B0F5807FF5DD01210820FFF785FF5D48E6
:100B3000006800205B490860C806086080135949B6
:100B40000C310860C000FFF752FC4FF48020009089
:100B500008208DF8050001208DF806006846FFF793
:100B6000CFFB1CBD10B50020FFF7C6FE0121C80554
:100B7000FFF76FFF10BD03204B490860704710B5A9
:100B80004A4CA07A18B105204749086002E00120CC
:100B90004549086000F024FC10BD08B54FF4A06082
:100BA000FFF732FB14208DF8000002208DF80100C1
:100BB00000208DF8020001208DF803006846FFF741
:100BC00028FB2A208DF8000000208DF801006846DF
:100BD000FFF71FFB08BD10B5044634B14FF40041C8
:100BE0003048001FFFF71BFD05E04FF400412D4882
:100BF000001FFFF712FD10BD10B52D48007800B999
:100C000010BD2C480078012810D12B480278C02153
:100C10002A4801F0A7FC28480178012001F003FFD1
:100C2000012001F087FD00202249087000202049A2
:100C3000087000BFE4E730B50B46002100BF16E0A6
:100C40000A24B4EB107F05D9302404EB107403F8A8
:100C5000114005E0412404EB10740A3C03F81140F4
:100C6000000100254C00641C1D554C1CE1B2914252
:100C7000E6DB30BD70B512480468001D0568001D34
:100C80000668344454B108220E492046FFF7D3FFCA
:100C900004220C4910312846FFF7CDFF70BD00003B
:100CA00016000020040C014014010020AC030020B9
:100CB00015000020260100202401002068010020EA
:100CC000E8F7FF1F1A000020704700BFFEE700BFD3
:100CD000FEE700BFFEE700BFFEE7704770477047C2
:100CE000704710B500F054F810BD10B54FF48020D7
:100CF000FFF77DFB10BD000010B51E4800780128ED
:100D000010D11D480278C0211C4801F02BFC1A4864
:100D10000178012001F087FE012001F00BFD002089
:100D200014490870FFF768FF10BD10B51349032080
:100D300002F06FF810490870012011490870032073
:100D400001F010FD10BD10B50E48006805280FD148
:100D50000D4801680068401C0B4A10600A2907D141
:100D6000002011460860012008490870FFF744FF81
:100D700010BD000026010020240100206801002091
:100D8000250100201401002038000020150000205B
:100D900010B588B000246948006869490880084691
:100DA000008800F4007067490988084050B14FF688
:100DB000FF506249086064480078401C624908702E
:100DC000FFF7C1FF5E48008800F400405D490988D4
:100DD000084008B101F028FA5948008800F4806002
:100DE00058490988084030B14FF6FF305349086030
:100DF0005649486880475248008800F400505149DD
:100E00000988084018B14DF6FF704C4908604C48FD
:100E1000008800F480504B490988084030B14EF6F4
:100E2000FF7046490860002000F068FA44480088D6
:100E300000F4006043490988084060B144480078E4
:100E400010B100F0D4F902E0022000F057FA4FF29E
:100E5000FF703A4908603A48008800F480703949C8
:100E600009880840002866D04FF6FF6033490860C3
:100E7000081D006800F40040002856D0354800687E
:100E8000401C3449086008460068032850D92B48A4
:100E9000001F006800F00800002849D12748001F03
:100EA000006880B22C490860002408E02B4901EB5F
:100EB0008400D0F8000C80B24DF82400641C082C8B
:100EC000F4D32548006840F0010023490860084633
:100ED000006880B21949091F08601F48006820F0A7
:100EE00001001D4908600846006880B21349091FC7
:100EF000086000BF1148006800F480600028F9D045
:100F00004FF6FF300D490860002408E05DF824002A
:100F100080B2124A02EB8401C1F8000C641C082C58
:100F2000F4D300200B49086002E000200949086062
:100F3000072000F0E3F908B010BD0000445C004059
:100F40003C0000203E0100203E00002090000020D8
:100F50001801002040000020440000200050004004
:100F600010B5FFF787FE002082490968887200F0FB
:100F700015F901F029FF00207F49086010BD10B568
:100F800000207C49096888727C48C07979490968E1
:100F90004872002077490968C87201F02FFB4FF4AE
:100FA0000071002001F044FB1021002001F059FBEA
:100FB0004021002001F013FD8021002001F003FDFD
:100FC000002001F00BFC6E4890F82C10002001F07E
:100FD0004CFD002001F0C6FB0021012001F028FBA0
:100FE000C021012001F0EFFC2021012001F039FB9C
:100FF0000021012001F053FB4FF4C061022001F0F9
:1010000017FB4FF48071022001F0DDFC002102206B
:1010100001F045FB2021022001F023FB00210320E9
:1010200001F006FB4FF48871032001F0D8FC402149
:10103000032001F01AFD4FF44051032001F02FFB73
:101040000021032001F00DFB002001F040F80120F9
:101050004949086010BD4B48817A11B10521464AC3
:101060001160704704204449086070474648007882
:10107000202802D10020444908707047704701467B
:1010800029B908203B4A12681082002070473F4867
:10109000FCE7014629B90820364A12681082002070
:1010A00070473A48FCE770B504460025212C09D169
:1010B00030480068007800F07F00212810D1AFF29E
:1010C0002D050DE0202C0BD12A480068007800F097
:1010D0007F00212801D1AFF2590520202A4908704C
:1010E0000DB9022070BD23480068856100212148A8
:1010F000006841820020A8470020F3E701461D4810
:101100000068007800F07F00212807D1022901D172
:1011100000207047222901D10020FAE70220F8E7D9
:1011200010B504461A49204600F0C7FC10BD10B5A2
:1011300004461849204600F0C0FC10BD70B50546B5
:101140000C480068C478042C01DD002070BD1248F2
:1011500000EBC401284600F0B0FCF7E70246002986
:1011600001DD02207047012A01DD0220FAE700209C
:10117000F8E700003401002014010020D42E0008FC
:1011800090000020AC03002080000020840000209C
:10119000E4000020EC000020F400002010B5012045
:1011A000FFF719FD01248648046000208549088066
:1011B00008460088824908600020091D08604FF435
:1011C000E05080490880084600887D49086000207A
:1011D00010BD10B501207A4908600020091D086083
:1011E000FFF7F9FC032076490860002010BD38B5F0
:1011F0000021002200230093714B1B6898B200BFAE
:1012000009E0714C04EB8103D3F8003C9BB26F4CB6
:1012100044F82130491C0829F3D340F48060684B1E
:10122000186040F00100186020F00100186000BF55
:10123000634B1B1D1B6803F48063002BF8D04FF633
:10124000FF335F4C241D2360002109E05F4B53F8FE
:1012500021309BB25C4D05EB8104C4F8003C491C75
:101260000829F3D340F00800554B18601B6898B26A
:1012700040F00400524B1860554B1B680093544BD0
:101280001A6822F0030242F001021A60514B1B68F7
:1012900043F004034F4C2360494B1B1D1B6803F4B0
:1012A000805333B930BF23461B6823F00403236007
:1012B00014E04EF6FF73424C241D2360231F1B686D
:1012C00098B220F00800231F1860414C009B236057
:1012D000404B1B6823F004033E4C236038BD10B51F
:1012E0003748006884B224F0040435480460FFF7EE
:1012F00046FC4FF43F403249086010BD70B50546CA
:10130000072D01D0344805703348007808284ED2A4
:10131000DFE800F004111A202B384E4F2F480068E8
:1013200028B9FFF7DCFF06202B49087002E00520F2
:101330002949087041E0FFF7D2FF042026490870D0
:1013400001202649086038E0022023494870032024
:10135000087032E020484078401E1F494870084617
:10136000407808B90420087027E01548006884B266
:1013700044F01004124804600520174908700A2040
:1013800048701AE014484078401E134948700846D7
:10139000407858B90A48006884B224F0100408481C
:1013A00004600620087000200C49086005E000BFBA
:1013B00000BF06200849087000BF00BF70BD0000D4
:1013C000405C00403E0100200050004048010020E9
:1013D0000070004010ED00E0190100201C01002009
:1013E0000CB50020019000904248006840F4803025
:1013F0004049086000BF3F48006800F4003000909A
:101400000198401C0190009818B90198B0F5A06FA0
:10141000F1D13848006800F4003010B1012000908C
:1014200001E0002000900098012843D13248006874
:1014300040F01000304908600846006820F00300C2
:1014400008600846006840F00200086029484068CB
:10145000284948600846406840F480604860084673
:10146000406848600846406820F4741048600846A8
:10147000406840F4A02048600846006840F0807052
:10148000086000BF1B48006800F000700028F9D019
:101490001848406820F00300164948600846406834
:1014A00040F00200486000BF1248406800F00C00A5
:1014B0000828F9D10CBD01210420FFF7BDFA0F481F
:1014C000006800200D49086002200860C0010B4937
:1014D0000C310860FFF718FBFFF744FBFFF75DFBDB
:1014E00000F084FE05E000F00BF800F03BF800F09F
:1014F0007EF8F8E700100240002002400408014096
:101500005E48007801282CD100205D4908801EE04B
:101510005C4890F801015B4991F80011401AB0F560
:10152000807F0FD0584856490988415C554890F84B
:101530000101544A1154104690F80101401C114613
:1015400081F801014E480088401C4D4908804C48F4
:1015500000884E4991F900108842D9DB00204749A4
:1015600008707047474890F80001464991F801110A
:1015700088423BD0434890F80101424991F800115C
:10158000401A4349087000203D49088027E03D4843
:1015900090F800013B4991F80111884200D124E004
:1015A000384890F800013749085C801CC1B23948BE
:1015B00090F80101374A1154104690F80101401C7F
:1015C000114681F801012F4890F80001401C2D4977
:1015D00081F800012A480088401C294908802848D1
:1015E00000882B4909788842D1DB00BF7047294821
:1015F00090F80001274991F8011188423DD0254813
:1016000090F80101234991F80011401A204908700F
:1016100000201E49087025E01E4890F800011D4971
:1016200091F80111884200D123E018480078402841
:1016300000D11EE0174890F800011649085C40B23E
:101640001149124A92F900208854124890F800017A
:10165000401C104981F800010C480078401C40B241
:101660000A490870094890F9000009490978884238
:10167000D2DB00BF01200849087070472501002017
:101680002A010020AA020020680100202401002075
:1016900028010020A80100202601002010B50446E2
:1016A0002CB90120F64909680882002010BDF549CF
:1016B000096808688047F24800680A30F6E710B504
:1016C000EF480068C078F0494978884213DCEC485C
:1016D0000068807878B9EA480068808858B9E84896
:1016E0000068C078E64909688872E6490968486870
:1016F0008047002010BD0220FCE710B504462CB93D
:101700000120DF4909680882002010BDDD49096811
:1017100088688047DA4800680C30F6E710B5D84B87
:101720001B68D978D64B1B685879D84B1B689A69C7
:1017300090470446D2480068807AE8B13CB9D04866
:101740000068007918B9CE480068807808B1022096
:1017500010BD8CB9CB490968C8688047C848006883
:101760004079C7490968C872C5480068C078C4494B
:10177000096808730020EBE70220E9E710B504468A
:101780002CB90220BE4909680882002010BD002043
:10179000BF490880BA480068007800F07F0018BB95
:1017A000B7490968487A00F0200131B1B849097891
:1017B00041F00201B64A117005E0B549097801F01F
:1017C000FD01B34A117000F0400131B1B049097810
:1017D00041F00101AE4A117005E0AD49097801F010
:1017E000FE01AB4A11703AE0A5480068007800F0AD
:1017F0007F00012801D1A648C8E7A1480068007809
:1018000000F07F00022828D19D4A1268517901F02A
:101810000F0001F080027AB19E4B03EB8002D2F8F8
:10182000002C02F03002102A16D1994A127842F0A8
:101830000102974B1A700FE0964B03EB8002D2F82F
:10184000002C02F44052B2F5805F05D1904A127824
:1018500042F001028E4B1A7001E0002096E78949A0
:101860000968086980478A4890E72DE9F04784486D
:101870000068007800F07F08B8F1000F0AD18048B6
:101880000068407A00F0DF007D4909684872002056
:10189000BDE8F087B8F1020F7ED179480068408832
:1018A00018B977480068007908B10220F0E7DFF83E
:1018B000D89173480068477927F080052C46704816
:1018C0000068407900F0800038B1724901EB840073
:1018D000D0F8000C00F0300606E06E4901EB840001
:1018E000D0F8000C00F4405699F80000A84204D942
:1018F0001EB163480068807A08B90220C8E707F083
:10190000800080B1634901EB8400D0F8000C00F046
:10191000300010284BD1E0B201F01DF8E0B23021C8
:1019200000F09FFE43E05B4901EB8400D0F8000C1F
:1019300000F44050B0F5805F39D1E4B9564A92F8CE
:101940002C10E0B201F091F8524A02EB8401D1F878
:10195000001C4BF68F7201EA020080F4805080F484
:10196000005040F4004141F080014A4B03EB8402F7
:10197000C2F8001C1BE0E0B200F0D5FF454A02EBC4
:101980008401D1F8001C4BF68F7201EA020080F44A
:10199000805080F4005000E00FE040F4004141F03E
:1019A00080013C4B03EB8402C2F8001C00BF3549A8
:1019B00009684869804700206AE700BF022067E79E
:1019C0002DE9F0412E480068467926F080073C4614
:1019D0002B480068407900F0800038B12D4901EBB8
:1019E0008400D0F8000C00F0300506E0294901EB36
:1019F0008400D0F8000C00F4405523480078A04241
:101A000008D91F480068408820B91DB11C480068EB
:101A1000807A10B90220BDE8F08106F08000A0B104
:101A20001C4A02EB8401D1F8001C48F6BF7201EA9F
:101A3000020080F0100040F4004141F08001154B9D
:101A400003EB8402C2F8001C14E0124A02EB84018A
:101A5000D1F8001C4BF68F7201EA020080F480502E
:101A600040F4004141F080010A4B03EB8402C2F8CC
:101A7000001C00BF03490968886980470020CAE745
:101A800034010020400100208C000020380100209B
:101A90002C010020005000409000002010B5F748B5
:101AA0000068407A40F02000F44909684872F4491F
:101AB0000968C8698047002010BD10B50246EF488C
:101AC0000068438A32B98888C01AEC4C24682082A6
:101AD000002010BD08681844FBE72DE9F041E748F5
:101AE000006800F110042688A068C0B1BEB1A588C6
:101AF000B54200D93546A8B2A16888470746208874
:101B0000401B2080608828446080002000F07FFF18
:101B10008046AAB24146384600F03EFD00BF20880C
:101B200050B14FF44050D74908800021084600F0DA
:101B30007AFF3020D44908802088A188884204DBBD
:101B40000320CE490968087218E02088002804DDC7
:101B50000520CA490968087210E0208870B906207B
:101B6000C649096808720021C848006880B2801C14
:101B7000C74A42F810103020C3490880BDE8F08100
:101B80002DE9F047BD48006800F110052E88BB48DC
:101B90000068077AD6B9042F18D1BE48007801280A
:101BA0000FD10021B948006880B2801CB84A42F8C1
:101BB00010103020B449088000BF0020B5490870DB
:101BC00003E007271020B049088027E0AC88A64230
:101BD00001D8042000E002200746B44200D9344670
:101BE000A0B2A96888478046002000F005FF814622
:101BF000A2B24946404600F0B5FCA1B2002000F078
:101C000012FF2888001B28806888204468803020C4
:101C10009D49088000029B49088000BF97490968D8
:101C20000F72BDE8F08770B50226944800684478CA
:101C300092480068007800F07F00002844D1092C09
:101C400003D1FFF73CFD06465FE0052C14D18B481D
:101C50000068C0787F280BDC88480068807838B935
:101C600086480068808818B984480068807A08B17E
:101C7000082565E0002648E0032C0ED17F48006867
:101C8000C078012807D17D480068808818B9FFF71F
:101C900005FF064639E0022637E0012C35D17748AA
:101CA0000068C07801280DD174480068808848B960
:101CB00072480068407A00F0200018B1FFF7D5FDA7
:101CC000064622E0022620E06C480068007800F01A
:101CD0007F00012805D10B2C17D1FFF71FFD064609
:101CE00013E066480068007800F07F0002280BD1FE
:101CF000012C03D1FFF7B9FD064606E0032C04D101
:101D0000FFF75EFE064600E002264EB1E0B2624AF0
:101D10001268516988470646032E01D109250FE054
:101D20000EB108250CE0062500215848006880B255
:101D3000801C574A42F8101030205349088000BFD9
:101D40004E4909680D7270BD2DE9F84F4B48006887
:101D500045780027BA46062D1BD148480068007810
:101D600000F07F00002813D14449096888780128D1
:101D700003D149490968CF690AE0022803D14649DD
:101D800009680F6A04E0032802D1434909684F6AD1
:101D9000ADE0002D67D1394800684088002862D145
:101DA00036480068C08802285DD134480068007950
:101DB000002858D131480068007800F07F0030B921
:101DC0002E480068808810B9AFF24F678FE02B482B
:101DD0000068007800F07F00012811D127490968C8
:101DE00048792D4909688A690021904700287ED1E9
:101DF00022480068807A002879D0AFF27F6776E0C9
:101E00001E480068007800F07F0002286FD11B4850
:101E10000068407900F00F0618480068407900F02B
:101E2000700916480068407900F0800038B11B49FD
:101E300001EB8600D0F8000C00F0300806E01749EE
:101E400001EB8600D0F8000C00F4405814480078EC
:101E5000B0424CD9B9F1000F49D1B8F1000F46D0CA
:101E6000AFF2E76743E0082D1CD104480068007812
:101E700000F07F00D8BBAFF2DB7738E03401002000
:101E8000400100204401002046010020505C004039
:101E9000006000402E01002038010020005000406A
:101EA0008C0000200A2D22D1C5480068007800F07F
:101EB0007F0001281BD1C2480068807AB8B1C048B1
:101EC0000068408898B9BE480068007978B9BC4875
:101ED0000068C08801280AD1B94909684879B94918
:101EE00009688A690021904708B9AFF2F17757B1C4
:101EF000B3480068A0F812A0B148006887610020CC
:101F0000B84700240FE0AE4A12685078AD4A126814
:101F1000116988470446032C05D10920A84909689E
:101F20000872BDE8F88FA6480068008A4FF6FF7176
:101F3000884204D10920A24909680872F1E7022CFD
:101F400003D09F480068008A20B908209C4909688E
:101F50000872E6E79A480068007800F08000E0B375
:101F600097480068C088009095480068008A0099EA
:101F7000884204D9924900980968088223E0904871
:101F80000068008A8E490968C98888421BDA8C4833
:101F90000068008A8B49096891F82C10884203DA9E
:101FA0000020894908700EE085480068008A85494C
:101FB000096891F82C1090FBF1F201FB120010B9A6
:101FC0000120814908707F48006890F82C107C48F7
:101FD00000688182FFF7D4FD07E0FFE7032078491E
:101FE0000968087200037949088000BF99E710B5B5
:101FF000774890F82C10002000F037FD70480068FA
:10200000007A082805D140027049088010207149E3
:1020100008806B480068007A092801D1012010BDB2
:102020000020FCE738B501246B48006880B2001D31
:102030006A4931F8100080B201EB4000009060481E
:102040000068007A092832D0009800785C49096855
:1020500008700098401C0090009800785849096862
:1020600048700098401C0090009800EB44000090DD
:10207000009931F8020B009100F0A0FE5049096868
:102080004880009800EB44000090009931F8020B62
:10209000009100F093FE4A4909688880009800EB9F
:1020A000440000900098008845490968C8800120D4
:1020B00043490968087242480068C08810B9FFF7B0
:1020C000B2FD01E0FFF740FEFFF791FF38BD30B5EC
:1020D0000146434B1A78002014E00306414C04EB00
:1020E0009353D3F8003C48F68F74234048F28004A1
:1020F0002343C4B2234304063A4D05EB9454C4F879
:10210000003C401C9042E8D341F08003324C241F35
:10211000236030BD10B52A480068047A022C01D033
:10212000042C05D1FFF72CFD25480068047A1CE03B
:10213000062C19D122480068407805280ED1204885
:102140000068007800F07F0040B91D490968C87830
:10215000FFF7BDFF24490968086A804719490968E3
:1021600088688047082400E00824154909680C7233
:10217000FFF73DFF10BD10B511480068047A022C2E
:1021800001D0042C01D1082412E0032C01D0052C2D
:1021900005D1FFF7A2FC0A480068047A08E0072C82
:1021A00005D108490968C8688047082400E0082468
:1021B000034909680C72FFF71AFF10BD7047000051
:1021C00034010020380100202E01002044010020AD
:1021D0009000002046010020505C0040006000405C
:1021E0008C000020005000404001002010B508483D
:1021F0000849086002200968087207480749086012
:10220000074808490860054909680868804710BD03
:10221000AC03002034010020900000203801002091
:10222000C00000204001002008B50020009022E1FD
:10223000C448008800F00F00C349087008460078C1
:1022400000287CD1C1480068C14908800846008840
:1022500000F03000BF490880BD48008800F44050BD
:10226000BB490880B94909684BF6BF7201EA020010
:1022700080F4005080F0200040F4004141F08001E3
:10228000B24A1160AF48008800F0100090BB1046C1
:10229000006848F60F71084011460860FFF73AFFE2
:1022A000AA4909684BF6BF7201EA0200A8490988E9
:1022B00001F4805109B180F48050A549098801F4E6
:1022C000005109B180F40050A249098801F01001C1
:1022D00009B180F010009F49098801F0200109B17F
:1022E00080F0200081B241F4004141F08001974A22
:1022F000116008BDFFE79548006880B20090BDF806
:10230000000000F40060B0B390480068C0F30E0015
:1023100048F68F7108408D490860FFF783FE8B49AE
:1023200009684BF6BF7201EA02008949098801F485
:10233000805109B180F480508549098800E056E059
:1023400001F4005109B180F400508249098801F07C
:10235000100109B180F010007E49098801F02001C8
:1023600009B180F0200081B241F4004141F08001C8
:10237000764A1160BDE7FFE7BDF8000000F40040B9
:10238000002878D071480068C0F30E0048F68F71BD
:1023900008406E490860FFF7EEFE6C4909684BF68D
:1023A000BF7201EA02006A49098801F4805109B14B
:1023B00080F480506649098801F4005109B180F425
:1023C00000506449098801F0100109B180F0100043
:1023D0006049098801F0200109B180F0200081B234
:1023E00041F4004141F08001584A116081E75648AC
:1023F0000078594901EB8000D0F8000C80B20090C1
:10240000BDF8000000F40040C0B14F48007801EB77
:102410008000D0F8000CC0F30E0048F68F71084021
:10242000494909784C4A02EB8101C1F8000C464940
:102430000978491E494A52F821008047BDF800003A
:1024400000F08000B8B140480078434901EB8000BB
:10245000D0F8000C48F60F7108403B4909783E4A15
:1024600002EB8101C1F8000C37490978491E3C4A4A
:1024700052F82100804735484430006880B2314925
:10248000088000F4004000287FF4D2AE00BF30E79F
:1024900010B500244AE047F6FF702C49443108602B
:1024A0002848008800F00F00274908700846007887
:1024B000294901EB8000D0F8000C84B204F40040FC
:1024C000C8B12148007801EB8000D0F8000CC0F3BF
:1024D0000E0048F68F7108401B4909781E4A02EB2E
:1024E0008101C1F8000C18490978491E1B4A52F8AD
:1024F000210080471AE004F08000B8B1124800784B
:10250000154901EB8000D0F8000C48F60F71084027
:102510000D490978104A02EB8101C1F8000C0A4903
:102520000978491E0E4A52F8210080470748443076
:10253000006880B20349088000F400400028AAD156
:1025400010BD00003C00002030010020005C004075
:10255000440100204601002000500040640000209B
:1025600048000020F0B5144604F1010C4FEA6C0756
:10257000DFF848C00CEB41033D460AE00678401CFA
:1025800090F800C046EA0C2223F8022B9B1C401C4A
:102590006D1E002DF2D1F0BDF0B5561C7510074E22
:1025A00006EB41042B4605E034F8047B20F8017B60
:1025B000401C5B1E002BF7D1F0BD00000060004006
:1025C000FA4908607047F948006880B27047F749D7
:1025D000091D08607047F548001D006880B270470B
:1025E000F2480830006880B27047F0490C3108604A
:1025F0007047EE480C30006880B270474FF6F871B3
:102600000140EA4A103211607047E8481030006813
:1026100080B27047E64B03EB8002C2F8001C7047A3
:102620000146E34A02EB8100D0F8000C80B270470B
:1026300010B5DF4B03EB8002D2F8002C48F68F1365
:102640001A400A43DA4C04EB8003C3F8002C10BD97
:102650000146D74A02EB8100D0F8000C00F4C060BC
:10266000704730B5D24C04EB8003D3F8003C48F6F9
:10267000BF7403EA040201F010030BB182F01002F0
:1026800001F020030BB182F0200242F4004343F03A
:102690008003C74D05EB8004C4F8003C30BD30B565
:1026A000C34C04EB8003D3F8003C4BF68F7403EA71
:1026B000040201F480530BB182F4805201F4005300
:1026C0000BB182F4005242F4004343F08003B84D52
:1026D00005EB8004C4F8003C30BD30B503460C4621
:1026E0001846FFF79DFF0546012C07D125F48050C1
:1026F000AF4A02EB8301C1F8000C08E0022C06D1BE
:1027000025F01000AA4A02EB8301C1F8000C30BD8D
:102710000146A74A02EB8100D0F8000C00F030001F
:1027200070470146A24A02EB8100D0F8000C00F489
:102730004050704710B59E4B03EB8002D2F8002C3E
:1027400048F6BF7302EA030181F0100181F0200115
:1027500041F4004242F08002954C04EB8003C3F840
:10276000002C10BD10B5924B03EB8002D2F8002C68
:102770004BF68F7302EA030181F4805181F400511A
:1027800041F4004242F08002894C04EB8003C3F81C
:10279000002C10BD864A02EB8001D1F8001C41F4E8
:1027A000807148F68F72114048F280021143804BCD
:1027B00003EB8002C2F8001C70477D4A02EB8001E7
:1027C000D1F8001C48F68F62114048F28002114394
:1027D000774B03EB8002C2F8001C7047744A02EB8F
:1027E0008001D1F8001C48F68F62114048F2800247
:1027F00011436F4B03EB8002C2F8001C70476C4A18
:1028000002EB8001D1F8001C41F4807148F68F7210
:10281000114048F280021143654B03EB8002C2F87D
:10282000001C7047624A02EB8001D1F8001C41F4A1
:10283000807148F68F72114048F2800211435C4B60
:1028400003EB8002C2F8001C7047594A02EB80017A
:10285000D1F8001C48F68F62114048F28002114303
:10286000534B03EB8002C2F8001C70470146504AEC
:1028700002EB8100D0F8000C00F03000102801D1EC
:10288000012070470020FCE70146494A02EB810025
:10289000D0F8000C00F44050B0F5805F01D1012069
:1028A00070470020FCE7424A02EB8001D1F8001C8F
:1028B000C1F30E0148F68F7211403D4B03EB8002CD
:1028C000C2F8001C70473A4A02EB8001D1F8001CA4
:1028D00048F60F721140364B03EB8002C2F8001C21
:1028E0007047334A02EB8001D1F8001C48F68F7222
:1028F00011404CF2800211432D4B03EB8002C2F8D1
:10290000001C70472A4A02EB8001D1F8001C48F6EF
:102910008F72114048F2C0021143254B03EB800235
:10292000C2F8001C7047224A02EB8001D1F8001C5B
:1029300001F4804171B102EB8001D1F8001C48F62E
:102940008F7211404CF280021143194B03EB80024D
:10295000C2F8001C7047164A02EB8001D1F8001C37
:1029600001F0400171B102EB8001D1F8001C48F682
:102970008F72114048F2C00211430D4B03EB8002ED
:10298000C2F8001C704710B5094B03EB8002D2F867
:10299000002C48F68F731A4048F280031A430A430A
:1029A000034C04EB8003C3F8002C10BD405C0040D6
:1029B000005000400146FC4A02EB8100D0F8000CB8
:1029C00000F00F00704710B54A105200F74B1B681B
:1029D0009BB203EBC003F64C44F8132010BD10B5B6
:1029E0004A105300F14A126892B202EBC002121D63
:1029F000EF4C44F8123010BD0146EC48006880B23C
:102A000000EBC100EA4A32F8100080B2704701467C
:102A1000E648006880B200EBC100001DE44A32F8CD
:102A2000100080B27047E14A126892B202EBC00215
:102A3000921CDF4B43F81210704702463E290BDD13
:102A4000481101F01F030BB9431E98B24FF4004325
:102A500043EA8023136007E0481001F001030BB143
:102A6000431C98B283021360704710B50246CF48EA
:102A7000006880B200EBC200801DCD4C04EB400327
:102A80003E290BDD481101F01F040CB9441EA0B211
:102A90004FF4004444EA80241C6007E0481001F031
:102AA00001040CB1441CA0B284021C6010BD01469C
:102AB000BE48006880B200EBC100801CBC4A32F8FE
:102AC0001000C0F3090070470146B848006880B2A2
:102AD00000EBC100801DB64A32F81000C0F30900B7
:102AE000704730B54B105B00B04C2468A4B204EBC7
:102AF000C004AF4D45F8143053105C00AB4B1B685D
:102B00009BB203EBC0031B1D45F8134030BD10B54D
:102B10004A105200A54B1B689BB203EBC003A44CA8
:102B200044F8132010BD10B54A1053009F4A126894
:102B300092B202EBC002121D9D4C44F8123010BD3F
:102B400001469A48006880B200EBC100984A32F80A
:102B5000100080B2704701469448006880B200EBD4
:102B6000C100001D924A32F8100080B2704730B5A3
:102B70000B46012B1FD18D49096889B201EBC001B9
:102B8000891C8B4D05EB41043E2A0BDD511102F0EF
:102B90001F050DB94D1EA9B24FF4004545EA812528
:102BA000256007E0511002F001050DB14D1CA9B2DE
:102BB0008D0225600AE0022B08D17C49096889B2A0
:102BC00001EBC001891C7A4C44F81120012B1FD164
:102BD0007649096889B201EBC001891D744D05EB86
:102BE00041043E2A0BDD511102F01F050DB94D1EA7
:102BF000A9B24FF4004545EA8125256007E0511050
:102C000002F001050DB14D1CA9B28D0225600AE04C
:102C1000022B08D16549096889B201EBC001891D01
:102C2000634C44F8112030BD30B5034601291FD153
:102C30005E48006880B200EBC300801C5C4D05EB71
:102C400040043E2A0BDD501102F01F050DB9451E50
:102C5000A8B24FF4004545EA8025256007E05010F2
:102C600002F001050DB1451CA8B2850225600AE0FD
:102C7000022908D14D48006880B200EBC300801CD7
:102C80004B4C44F8102030BD30B5034601291FD10C
:102C90004648006880B200EBC300801D444D05EB40
:102CA00040043E2A0BDD501102F01F050DB9451EF0
:102CB000A8B24FF4004545EA8025256007E0501092
:102CC00002F001050DB1451CA8B2850225600AE09D
:102CD000022908D13548006880B200EBC300801D8E
:102CE000334C44F8102030BD01463048006880B2B3
:102CF00000EBC100801C2E4A32F81000C0F309001E
:102D0000704701462948006880B200EBC100801D71
:102D1000274A32F81000C0F30900704701462348E3
:102D2000006880B200EBC100801D214A32F810001B
:102D300000F47C4008B1012070471C48006880B254
:102D400000EBC100801C1A4A32F81000C0F30900E1
:102D500008B10220F0E70020EEE710B5012910D1FC
:102D6000114B03EB8002D2F8002C48F68F731A4007
:102D700048F2C0031A430C4C04EB8003C3F8002C48
:102D800011E002290FD1084B03EB8002D2F8002C8E
:102D900048F68F731A404CF280031A43024C04EB3E
:102DA0008003C3F8002C10BD00500040505C004070
:102DB00000600040024641EA022070470146CAB264
:102DC0000B1243EA0220704700201D4908604FF4AF
:102DD0003F401C490880084600881949091F0860BF
:102DE000002070472DE9F04104460E46154604F0D8
:102DF0007F00FFF701FE0746AAB239463046FFF7CB
:102E0000B1FBA9B204F07F00FFF70DFE0020BDE882
:102E1000F0812DE9F04104460E46002504F07F00C4
:102E2000FFF752FE054604F07F00FFF7F0FD07466E
:102E30002A4639463046FFF7AFFB2846BDE8F08109
:102E4000445C00403E010020704770477047754663
:102E500000F02CF8AE4605006946534620F0070006
:102E6000854618B020B5FDF7BDF9BDE820404FF00C
:102E700000064FF000074FF000084FF0000B21F064
:102E80000701AC46ACE8C009ACE8C009ACE8C00931
:102E9000ACE8C0098D46704710B50446AFF300801A
:102EA0002046BDE81040FDF788B900000048704793
:102EB000C803002001491820ABBEFEE7260002002F
:102EC00070471201000202000040830440570002D4
:102ED0000102030109024300020100C0320904009B
:102EE0000001020201000524001001052401000177
:102EF000042402020524060001070582030800FFDE
:102F000009040100020A0000000705030240000056
:102F100007058102400000040309042603530054FE
:102F2000004D006900630072006F0065006C006571
:102F3000006300740072006F006E0069006300732C
:102F4000003203530054004D00330032002000567D
:102F500000690072007400750061006C002000437D
:102F6000004F004D00200050006F007200740020E0
:102F700000200000942F00080000002048010000FD
:102F8000280100081C30000848010020E00800006B
:102F900084010008412D01020304044009060708CA
:102FA0000902040608141A03531254124D12330274
:102FB000253213F90C0C1C08BD21040B102B0D1429
:102FC0004143C0DA120823040113610F1B087F0478
:102FD000136D101B087D041AA7041AFD04135D115C
:102FE0001B0821041A2F041A3D0441324029441AB7
:102FF00057200916741A651C13C22E3308121AD4EE
:1030000008324313172F3308041A1B0832261A41BB
:0C3010000829E6221873201A198B012DE4
:04000005080001C925
:00000001FF
